:020000040800F2
:1000000000000220414A0008914A0008914A000875
:10001000914A0008914A0008914A00080000000037
:10002000000000000000000000000000914A0008ED
:10003000914A000800000000914A00086D0B00087A
:10004000914A0008914A0008914A0008914A000824
:10005000914A0008914A0008914A0008914A000814
:10006000914A0008914A0008914A0008914A000804
:10007000914A0008914A0008914A0008914A0008F4
:10008000914A0008914A0008914A0008914A0008E4
:10009000914A0008914A0008914A0008914A0008D4
:1000A000914A0008914A0008914A0008914A0008C4
:1000B000914A0008914A0008914A0008914A0008B4
:1000C000914A0008914A0008914A0008914A0008A4
:1000D000914A0008914A0008914A0008914A000894
:1000E000914A0008914A0008914A0008914A000884
:1000F000914A0008914A0008914A0008914A000874
:10010000914A0008AD130008914A0008914A00087E
:10011000914A0008914A0008914A0008914A000853
:10012000914A0008914A0008914A0008D913000832
:10013000914A0008914A0008914A0008914A000833
:10014000914A0008914A0008914A0008914A000823
:10015000914A0008914A0008914A0008914A000813
:10016000914A0008914A0008914A0008914A000803
:10017000914A0008914A0008914A0008914A0008F3
:08018000914A0008914A0008B1
:1001880010B5054C237833B9044B13B10448AFF3C9
:1001980000800123237010BDBC2300200000000054
:1001A8007C67000808B5034B1BB103490348AFF34C
:1001B800008008BD00000000C02300207C67000804
:1001C800034613F8012B002AFBD1181A013870478F
:1001D80081F0004102E000BF83F0004330B54FEAF0
:1001E80041044FEA430594EA050F08BF90EA020F5D
:1001F8001FBF54EA000C55EA020C7FEA645C7FEAF0
:10020800655C00F0E2804FEA5454D4EB5555B8BF12
:100218006D420CDD2C4480EA020281EA030382EA83
:10022800000083EA010180EA020281EA0303362D15
:1002380088BF30BD11F0004F4FEA01314FF4801CE8
:100248004CEA113102D0404261EB410113F0004FFA
:100258004FEA03334CEA133302D0524263EB4303B1
:1002680094EA050F00F0A780A4F10104D5F1200E4F
:100278000DDB02FA0EFC22FA05F2801841F10001AA
:1002880003FA0EF2801843FA05F359410EE0A5F17E
:1002980020050EF1200E012A03FA0EFC28BF4CF0AF
:1002A800020C43FA05F3C01851EBE37101F0004565
:1002B80007D54FF0000EDCF1000C7EEB00006EEB72
:1002C8000101B1F5801F1BD3B1F5001F0CD34908FC
:1002D8005FEA30004FEA3C0C04F101044FEA445253
:1002E80012F5800F80F09A80BCF1004F08BF5FEADA
:1002F800500C50F1000041EB045141EA050130BDBA
:100308005FEA4C0C404141EB010111F4801FA4F15C
:100318000104E9D191F0000F04BF01460020B1FAB1
:1003280081F308BF2033A3F10B03B3F120020CDAE9
:100338000C3208DD02F1140CC2F10C0201FA0CF0C7
:1003480021FA02F10CE002F11402D8BFC2F1200C2C
:1003580001FA02F120FA0CFCDCBF41EA0C019040E2
:10036800E41AA2BF01EB0451294330BD6FEA04042B
:100378001F3C1CDA0C340EDC04F11404C4F1200216
:1003880020FA04F001FA02F340EA030021FA04F328
:1003980045EA030130BDC4F10C04C4F1200220FA7F
:1003A80002F001FA04F340EA0300294630BD21FABD
:1003B80004F0294630BD94F0000F83F4801306BF83
:1003C80081F480110134013D4EE77FEA645C18BF77
:1003D8007FEA655C29D094EA050F08BF90EA020F0E
:1003E80005D054EA000C04BF1946104630BD91EA06
:1003F800030F1EBF0021002030BD5FEA545C05D109
:100408004000494128BF41F0004130BD14F5800447
:100418003CBF01F5801130BD01F0004545F0FE41BB
:1004280041F470014FF0000030BD7FEA645C1ABFF0
:10043800194610467FEA655C1CBF0B46024650EA27
:10044800013406BF52EA033591EA030F41F4002153
:1004580030BD00BF90F0000F04BF0021704730B5D9
:100468004FF4806404F132044FF000054FF00001AE
:1004780050E700BF90F0000F04BF0021704730B56F
:100488004FF4806404F1320410F0004548BF404244
:100498004FF000013EE700BF42004FEAE2014FEA99
:1004A80031014FEA02701FBF12F07F4393F07F4F74
:1004B80081F06051704792F0000F14BF93F07F4FA6
:1004C800704730B54FF4607401F0004521F00041E9
:1004D80020E700BF50EA010208BF704730B54FF06F
:1004E80000050AE050EA010208BF704730B511F074
:1004F800004502D5404261EB41014FF4806404F1AC
:1005080032045FEA915C3FF4DCAE4FF003025FEA2D
:10051800DC0C18BF03325FEADC0C18BF033202EBB5
:10052800DC02C2F1200300FA03FC20FA02F001FA0F
:1005380003FE40EA0E0021FA02F11444C1E600BFAE
:1005480070B54FF0FF0C4CF4E06C1CEA11541DBF61
:100558001CEA135594EA0C0F95EA0C0F00F0DEF82C
:100568002C4481EA030621EA4C5123EA4C5350EA11
:10057800013518BF52EA033541F4801143F4801362
:1005880038D0A0FB02CE4FF00005E1FB02E506F0F3
:100598000042E0FB03E54FF00006E1FB03569CF048
:1005A800000F18BF4EF0010EA4F1FF04B6F5007F4E
:1005B80064F5407404D25FEA4E0E6D4146EB0606C0
:1005C80042EAC62141EA55514FEAC52040EA5E5049
:1005D8004FEACE2EB4F1FD0C88BFBCF5E06F1ED8F3
:1005E800BEF1004F08BF5FEA500E50F1000041EB2A
:1005F800045170BD06F0004646EA010140EA0200D7
:1006080081EA0301B4EB5C04C2BFD4EB0C0541EAF8
:10061800045170BD41F480114FF0000E013C00F30D
:10062800AB8014F1360FDEBF002001F0004170BD31
:10063800C4F10004203C35DA0C341BDC04F114044A
:10064800C4F1200500FA05F320FA04F001FA05F2D6
:1006580040EA020001F0004221F0004110EBD370A3
:1006680021FA04F642EB06015EEA430E08BF20EACF
:10067800D37070BDC4F10C04C4F1200500FA04F372
:1006880020FA05F001FA04F240EA020001F0004104
:1006980010EBD37041F100015EEA430E08BF20EA77
:1006A800D37070BDC4F1200500FA05F24EEA020EBF
:1006B80020FA04F301FA05F243EA020321FA04F0EE
:1006C80001F0004121FA04F220EA020000EBD370A5
:1006D8005EEA430E08BF20EAD37070BD94F0000FA5
:1006E8000FD101F00046400041EB010111F4801FD9
:1006F80008BF013CF7D041EA060195F0000F18BF8A
:10070800704703F00046520043EB030313F4801FC5
:1007180008BF013DF7D043EA0603704794EA0C0F7F
:100728000CEA135518BF95EA0C0F0CD050EA410695
:1007380018BF52EA4306D1D181EA030101F0004112
:100748004FF0000070BD50EA410606BF104619463A
:1007580052EA430619D094EA0C0F02D150EA013646
:1007680013D195EA0C0F05D152EA03361CBF104687
:1007780019460AD181EA030101F0004141F0FE4126
:1007880041F470014FF0000070BD41F0FE4141F4AA
:10079800780170BD70B54FF0FF0C4CF4E06C1CEAAA
:1007A80011541DBF1CEA135594EA0C0F95EA0C0F5F
:1007B80000F0A7F8A4EB050481EA030E52EA03351A
:1007C8004FEA013100F088804FEA03334FF080553B
:1007D80045EA131343EA12634FEA022245EA111568
:1007E80045EA10654FEA00260EF000419D4208BF19
:1007F800964244F1FD0404F5407402D25B084FEAC6
:100808003202B61A65EB03055B084FEA32024FF471
:1008180080104FF4002CB6EB020E75EB030E22BFCE
:10082800B61A754640EA0C005B084FEA3202B6EB8E
:10083800020E75EB030E22BFB61A754640EA5C003D
:100848005B084FEA3202B6EB020E75EB030E22BFCD
:10085800B61A754640EA9C005B084FEA3202B6EBCE
:10086800020E75EB030E22BFB61A754640EADC008D
:1008780055EA060E18D04FEA051545EA16754FEAEF
:1008880006164FEAC30343EA52734FEAC2025FEA0D
:100898001C1CC0D111F4801F0BD141EA00014FF09C
:1008A80000004FF0004CB6E711F4801F04BF01436D
:1008B8000020B4F1FD0C88BFBCF5E06F3FF6AFAE89
:1008C800B5EB030C04BFB6EB020C5FEA500C50F119
:1008D800000041EB045170BD0EF0004E4EEA11319C
:1008E80014EB5C04C2BFD4EB0C0541EA045170BDA3
:1008F80041F480114FF0000E013C90E645EA060EE7
:100908008DE60CEA135594EA0C0F08BF95EA0C0F14
:100918003FF43BAF94EA0C0F0AD150EA01347FF45C
:1009280034AF95EA0C0F7FF425AF104619462CE733
:1009380095EA0C0F06D152EA03353FF4FDAE104696
:10094800194622E750EA410618BF52EA43067FF4E7
:10095800C5AE50EA41047FF40DAF52EA43057FF477
:10096800EBAE12E74FEA4102B2F1E04324BFB3F520
:10097800001CDCF1FE5C0DD901F0004C4FEAC0020E
:100988004CEA5070B2F1004F40EB830008BF20F0F2
:100998000100704711F0804F21D113F13872BCBFAC
:1009A80001F00040704741F480114FEA5252C2F101
:1009B8001802C2F1200C10FA0CF320FA02F018BF4A
:1009C80040F001004FEAC1234FEAD32303FA0CFC9D
:1009D80040EA0C0023FA02F34FEA4303CCE77FEA2C
:1009E800625307D150EA01331EBF4FF0FE4040F476
:1009F8004000704701F0004040F0FE4040F4000025
:100A0800704700BF10B5084A084B094CA04294BF74
:100A18001846104611F0005F21F0F02121F08211F4
:100A280014BFC160816010BD0064024000600240D4
:100A38000F640240FFF7E6BF2DE9F0430D6800227E
:100A48000126032406FA02FC3CEA05033DD15700BF
:100A5800D0F800E004FA07F3DB430EEA030EC0F80F
:100A680000E091F804E0D0F800900EFA07F80EF1D3
:100A7800FF3E48EA0908BEF1010FC0F8008017D808
:100A8800D0F808E003EA0E0383604B79D0F808E059
:100A9800BB4043EA0E038360436823EA0C034360C8
:100AA8008B79D0F804E093409BB243EA0E0343608D
:100AB800C36804FA07FE23EA0E03C360CB79D0F8B3
:100AC8000CE0BB4043EA0E03C3600132102AB9D1DF
:100AD800BDE8F083044B1A6B11B1104318637047DB
:100AE80022EA0000FAE700BF00380240034B5B6BC4
:100AF800034214BF01200020704700BF002C0140B2
:100B0800014B9863704700BF002C0140038810B563
:100B180003F441524C880B8823438C882343CC88A8
:100B280023430C8923434C8923438C892343CC8951
:100B3800234313439BB20380838B23F400631B047A
:100B48001B0C83830B8A038210BD00230380438020
:100B58008380C380038143818381C3810723038208
:100B680070470000144A1368013370B51360134BC3
:100B78001A6812B11A68013A1A60AFF30080104E71
:100B880000253378ECB2A34200D870BD06EB84048C
:100B980063687BB11A7B6AB19A685AB1013A9A6064
:100BA80042B91A695869904763681A689A605A681E
:100BB80002B91A730135E4E7F4230020F823002072
:100BC800D82300200C4B0D491A684FF47A73B2FBF6
:100BD800F3F3013B4B600A4BF02083F8230000231A
:100BE8008B6007230B60074BB2FBF3F2064B1A60CE
:100BF800064B01221A707047B820002010E000E070
:100C080000ED00E0C0CF6A00082B0020F023002090
:100C1800012070470120704701207047012070476C
:100C2800012070470120704701207047012070475C
:100C3800012070470120704701207047012070474C
:100C48000120704701207047012070471423584342
:100C5800024B1B5803B118470420704700000020BE
:100C6800044A142303FB0020436803B118470420F7
:100C7800704700BF0000002030B404460846114603
:100C88004BB1064A142505FB042424691CB11A46F5
:100C9800234630BC1847042030BC704700000020B1
:100CA80030B40446084611464BB1064A142505FBE4
:100CB8000424E4681CB11A46234630BC18470420B3
:100CC80030BC70470000002010B40C4607491423BC
:100CD80003FB0010836823B1204611465DF8044BDE
:100CE800184704205DF8044B704700BF000000203F
:100CF800004870470000FC420C4A138813F0400378
:100D080012D013461A899107FCD01A891206F9D411
:100D180080B29881054B1A899107FCD01A8912066E
:100D2800F9D49889C0B27047184670470038004017
:100D380070B5104CC82305460E462360FF20FFF708
:100D4800DBFFFF2803D120680028F7D170BDFE28FB
:100D58000DD13346FF222946074802F079F8FF20D3
:100D6800FFF7CAFFFF20FFF7C7FF012070BD002073
:100D780070BD00BFF823002000380040024B20223D
:100D88001A83FF20FFF7B8BF0004024010B5074CD4
:100D98002060FF20FFF7B0FFFF2802D02368002B58
:100DA800F7D1A0F1FF035842584110BDF8230020A5
:100DB800094B202210B5FF205A83FFF79DFF4FF4FF
:100DC800FA70FFF7E3FF044618B9FFF7D7FF20468C
:100DD80010BD0124FBE700BF00040240020638B53D
:100DE80004460D4607D500213720FFF7F7FF0128F5
:100DF80033D804F07F040C2C28D144F04000FFF7CE
:100E08007BFF280EFFF778FFC5F30740FFF774FF55
:100E1800C5F30720FFF770FFE8B2FFF76DFFECB1ED
:100E2800082C14BF01208720FFF766FF0C2C02D185
:100E3800FF20FFF761FF0A24FF20FFF75DFF03068D
:100E48000BD5013C14F0FF04F6D138BDFFF796FF2F
:100E5800FFF7AEFF0028D0D1FF2038BD9520E3E78B
:100E680038B505464FF4FA700C46FFF78FFFD0B13E
:100E78002046FFF741FFFD2C14D04FF4007229469D
:100E8800094801F0CDFFFF20FFF736FFFF20FFF7ED
:100E980033FFFF20FFF730FF00F01F00431F5842C9
:100EA800584138BD012038BD0038004007B500233F
:100EB80001228DE80C002021024801F063FF03B0F5
:100EC8005DF804FB0004024073B5FFF7EFFFFFF77E
:100ED80079FE01214B4802F075F94B4B20221A8309
:100EE8004A4B1A680192EFF3058242B1484A0A2335
:100EF80053B11168C90348BF03F1FF33F8E71A6813
:100F08000199521A092AFAD90A24FF20013CFFF74D
:100F1800F3FE14F0FF04F8D121462046FFF75EFFE8
:100F28000128064663D13B4D4FF47A734FF4D571CF
:100F380008202B60FFF752FF012844D1FF20FFF75C
:100F4800DBFE0DF804000134042CF7D19DF80230C3
:100F5800012B4CD19DF80330AA2B48D12B6853BBE9
:100F68002B68002B43D000213A20FFF737FF0028D9
:100F78003DD10446FF20FFF7BFFE0DF80400013401
:100F8800042CF7D19DF8003013F0400F0CBF042457
:100F98000C24214B1C70FFF7F1FE204B002C2FD0A6
:100FA8001A7802F0FE021A701A7802F0FB021A7020
:100FB800187802B070BD4FF08041A920FFF70EFFEE
:100FC8000028CBD1CCE72146A920FFF707FF01284D
:100FD8008EBF01240224A9262B6853B92B6833B984
:100FE8004FF400711020FFF7F9FE0028D1D000243B
:100FF800CFE700213046FFF7F1FE0028ECD1EDE7FE
:101008000122D0E70038004000040240F423002009
:1010180010E000E0F8230020FC230020B4000020AA
:10102800034B1A7802F0FB021A701878704700BF59
:10103800B400002038B51A4B1B781446DA07054669
:101048002CD4184B1B781B0758BF4902012C11D10F
:101058001120FFF7C3FE38B94FF400712846FFF797
:1010680067FEB0FA80F46409FFF788FE201C18BFF9
:10107800012038BD1220FFF7B1FE0028F4D14FF44B
:1010880000712846FFF754FE18B1013C05F50075BC
:10109800F5D100210C20FFF7A1FEE5E7032038BDBC
:1010A800B4000020FC23002070B5224B14461A78A7
:1010B8000546D0070E4639D41B78590738D41E4B3D
:1010C8001B781A0758BF7602012C11D13146182017
:1010D800FFF784FE40BBFE212846FFF7C1FEB0FAA9
:1010E80080F46409FFF74AFE201C18BF012070BD78
:1010F80013F0060F03D021469720FFF76FFE314605
:101108001920FFF76BFE0028ECD1FC212846FFF7D9
:10111800A7FE18B1013C05F50075F6D1FD210020A8
:10112800FFF79EFE0028DDD10124DBE7032070BD18
:10113800022070BDB4000020FC2300207FB56F4B57
:101148001B780D46D90700F1D780042800F2D28019
:10115800DFE800F00309D04B9900FFF729FEB0FA49
:1011680080F4640906E000210920FFF737FE0446F1
:1011780028B10124FFF702FE204604B070BD1021FB
:101188006846FFF7D5FD0028F3D09DF800309DF89C
:1011980008009DF809109B09012B9DF8073009D11B
:1011A8001A0402F47C12013201EB002313449B025F
:1011B8002B60DFE79DF806209B00920203EB90135B
:1011C80002F4406213449DF805209DF80A0002F0DD
:1011D8000F0202EBD0124900023201F006010A4464
:1011E800D2B20133093A9340E2E7454C217811F035
:1011F80004011BD000218D20FFF7F0FD0028B8D195
:10120800FF20FFF779FD10216846FFF791FD0028C0
:10121800AFD03024FF20013CFFF76EFD14F0FF042F
:10122800F8D19DF80A301A091023DCE70920FFF7E6
:10123800D5FD064600289CD110216846FFF778FDA9
:10124800002896D020789DF80A309DF80B1010F0F1
:1012580002040DD05B009DF80D2003F07E0303EB24
:10126800D11392090133013A93402B60344681E748
:10127800CA0002F01802C3F3840302EB51120133CF
:1012880002FB033394E71E4C227812F0060F3FF45A
:1012980070AF69460B20FFF751FF00287FF469AF54
:1012A8009DF800309B0904D19DF80A305A067FF555
:1012B80060AF22CD23781B0758BF49024FF02000AA
:1012C80058BF6D02FFF78AFD00287FF452AF294608
:1012D8002120FFF783FD014600287FF44AAF26202E
:1012E800FFF77CFD00287FF444AF47F23050FFF74A
:1012F8004DFD34E704243DE703243DE7B400002016
:10130800FC23002010B54FF48070FFF7EFFB224C50
:1013180088B100234FF480702370FFF7F1FB1F4B57
:1013280001221A601E4AD36B23F4434323F03A0385
:10133800D363207810BD0220FFF7D8FB28B1022024
:10134800FFF7DEFB02232370ECE70820FFF7CEFB54
:1013580020B10820FFF7D4FB0423F4E72020FFF78F
:10136800C5FB20B12020FFF7CBFB0623EBE71020BD
:10137800FFF7BCFB20B11020FFF7C2FB0523E2E713
:101388004FF40070FFF7B2FB0028CBD04FF4007089
:10139800FFF7B6FB0723D6E7082400200424002023
:1013A800002C0140FFF7AEBF064B1B6813F0C05F6F
:1013B80007D0054B054801224FF0C2511A60FFF7CC
:1013C80039BB704700640240002400205864024082
:1013D800FFF7EABF01380A44914200D1704711F87B
:1013E800013B00F8013FF7E70244904200D1704703
:1013F80000F8011BF9E7024600F10B010020C301C8
:1014080043EA500312F8010B50FA83F38A42D8B228
:10141800F5D17047F0B50468054624B323461A464B
:1014280013F8011B1F2929D93A29F8D12378A3F1E8
:10143800300009281AD9DFF850E0013200235EF89D
:101448002370204610F8011B17F8016BA1F1610CFD
:10145800BCF1190F9CBF2039C9B28EB1B142F1D08D
:101468000133092BEBD14FF0FF30F0BD631C9A42DA
:10147800E1D10928F7D001322A60F0BD0020F0BD83
:101488008242EDD11846F7E73468000808B580B104
:10149800036873B11A7862B1D9888288914208D1F9
:1014A8005878FFF7DDFB10F0010F14BF0320002070
:1014B80008BD092008BD03692DE9F0410D46093131
:1014C800002B33D042690024561E2E2716F8013F00
:1014D800202B04F1010419D0052B4ED0092C01D181
:1014E8000F700131A3F1410EBEF1190F0CD8082C71
:1014F80092F80CE08CBF4FF0100C4FF0080C1CEA6F
:101508000E0F1CBF2033DBB20B7001310B2CDDD169
:10151800D37A2B72D3692B60547E137E43EA04235B
:10152800AB80D47D937D43EA0423EB8000240C70C8
:10153800AE693EB3036923B9002400233355BDE8DF
:10154800F081EB69002BF7D0028C4FF6FF739A42BB
:10155800F2D0D0F81C80771E38F814000028ECD0A0
:10156800002101F06DFB0028E6D0EB69013B9C42AD
:10157800E2D2013407F8010FEEE7092C4FF0E5033A
:10158800C2D1ADE7BDE8F081CA7E8B7E032843EA6D
:10159800022301BF487D0A7D42EA002243EA024352
:1015A80018467047F8B5C56A00F1300704460123AC
:1015B8002A4639464078FFF773FBA0B9236AA26927
:1015C8002071EB1A934201D30020F8BDE678012E72
:1015D800FAD9A36960781D442A4601233946FFF7E2
:1015E8005FFB013EF3E70120F8BD03790BB1FFF77C
:1015F800D9BF1846704770B50446FFF7F6FF054691
:10160800002851D12378032B46D16379012B43D18C
:1016180004F1300601464FF400723046FFF7E4FE4D
:10162800552284F82E22AA2284F82F22522284F8E6
:10163800302084F83120612284F8322084F817227F
:10164800226984F81822412184F8331084F816128C
:10165800C2F3072184F81912110C120E84F81B2208
:10166800E26884F81A12C2F3072184F81C2284F86D
:101678001D12110C120E84F81F22E26984F81E1242
:101688007220013284F8140284F81502E2623146AD
:101698006078FFF705FB6571002211466078FFF757
:1016A80013FB003018BF012070BDC36A8B4270B5B0
:1016B80006460D4612D0FFF798FF044660B92A4641
:1016C800012306F130017078FFF7D6FA00281CBF15
:1016D8004FF0FF350124F562204670BD0024FBE77A
:1016E800002310B503714FF0FF33C3620446FFF7C0
:1016F800DCFFC0B994F82F2294F82E3243EA022373
:101708004AF65522934210D1D4F86630084A23F09D
:101718007F4393420AD0D4F8820020F07F40801A99
:1017280018BF012010BD032010BD022010BD00BF4E
:1017380046415400F0B50023036085B007460846CB
:101748001546FFF767FE061EC0F20A81874B53F85D
:101758002640002C00F006813C6023786BB160784D
:10176800FFF77EFAC70708D4002D00F0D68010F0E6
:10177800040000D00A2005B0F0BD0023F0B22370A9
:101788006070FFF763FAC10700F1EE800DB1420700
:10179800F0D400212046FFF7A3FF012840F0C880BD
:1017A80004F5FB71002211F8043C03B10B684DF8F5
:1017B80022300132042A01F11001F4D100265DF82B
:1017C8002650002D00F0AB8029462046FFF788FF01
:1017D800002840F0A58094F83C2094F83B3043EA78
:1017E8000223B3F5007F40F0A68094F8473094F8C0
:1017F800400094F84610E07051EA032100F1FF33ED
:1018080008BF616DA161012B00F2958094F83D60DD
:10181800A670002E00F08F80731E334240F08B803C
:1018280094F8423094F8417047EA03273B07278130
:1018380040F0818094F8442094F8433094F83FE0D5
:1018480053EA022394F83E2008BF236D52EA0E2281
:1018580071D001FB00FE02EB1710704483426AD37B
:101868001B1AB3FBF6F3002B65D040F6F576B342AE
:1018780065D94FF6F576B34294BF022603260233A4
:101888002A442844032E6361E5612262A06258D18C
:10189800002F50D1E26D62629B0003F2FF13B1EB9F
:1018A800532F48D34FF0FF332361E360032E4FF0EB
:1018B800800363712AD194F8612094F8603043EA78
:1018C8000223012B22D1691C2046FFF7EEFEE8B95E
:1018D80094F82F2294F82E32607143EA02234AF6D4
:1018E8005522934212D1226B214B9A420ED103F119
:1018F800FF53D4F8142203F5005320339A4201BF52
:10190800D4F818322361D4F81C32E360194A2670DF
:10191800138801339BB21380E38000202BE7022059
:101928000136042E7FF44BAF032804D1012022E7AF
:101938000328FBD008B10D201DE705464BE701261B
:101948009DE7002FF7D07244022E62624FEA4302ED
:101958001BBFD21803F00103134603EB52039CE7A5
:101968000B2008E70C2006E7032004E70C240020DE
:10197800525261413024002043690239023B9942A6
:101988003DBF8378806A01FB03000020704701296E
:10199800F8B506460D465DD9436999425AD203788F
:1019A800022B29D0032B39D0012B53D101EB510441
:1019B800016A01EB5421FFF778FE10B14FF0FF30B8
:1019C800F8BD671C316AC4F30804344401EB57219D
:1019D800304694F83040FFF768FE0028EED1C7F390
:1019E80008073E44EB0796F8300044EA00204CBF55
:1019F8000009C0F30B00F8BD016A01EB1521FFF7E0
:101A080054FE0028DAD16D0005F4FF75354495F8C9
:101A1800313095F8300040EA0320F8BD016A01EB47
:101A2800D511FFF742FE0028C8D1AD0005F4FE75B8
:101A380005F13003334435449878DA785B7800044C
:101A480040EA026095F83020104340EA032020F075
:101A58007040F8BD0120F8BD826870B50446012ABF
:101A68000D46E18001D1022070BD036859698A42A0
:101A7800F9D2BAB91978032901D1596A99B91989DA
:101A88008D42F0D2586AE2600028ECD0236800EB5F
:101A98001510303305F00F0503EB4515206165611E
:101AA800002070BD11469E780A463601B54211469F
:101AB800206802D2FFF760FFE5E7FFF768FF431CE5
:101AC800024607D00128CED923685B699842CAD25A
:101AD800AD1BEBE7012070BD01292DE9F04105465A
:101AE8000C46164672D9436999426FD20378022B85
:101AF8003ED0032B4DD0012B68D101EB5107016A71
:101B080001EB5721FFF7D1FD002860D107F101084B
:101B1800C7F308072F4414F001041FBF97F83030AB
:101B280003F00F02330103F0F00314BF1343F3B2C1
:101B380087F83030296A01232B7101EB5821284698
:101B4800FFF7B3FD002842D1C8F308032B443CB18A
:101B5800C6F3071283F8302001232B71BDE8F0810A
:101B680093F83020C6F3032622F00F023243F1E740
:101B7800016A01EB1421FFF798FD40BB640004F4EF
:101B8800FF742C44C6F3072284F8306084F83120AF
:101B9800E2E7016A01EBD411FFF787FDB8B9A400A9
:101BA80004F4FE7404F1300129442C44CB781B065C
:101BB80003F0704343EA0602C2F3072384F8302097
:101BC8004B70130C120E8B70CA70C5E70220BDE86B
:101BD800F081F8B505460F4671B9C668E6B14369A4
:101BE8009E4228BF012634466B6901349C4216D3B5
:101BF800012E13D8002408E0FFF7C9FE0128044687
:101C080035D9013003D14FF0FF342046F8BD6B6958
:101C18009C42FAD33E46E6E70126E4E70224214641
:101C28002846FFF7B4FE30B1411CECD001281ED085
:101C3800B442D9D1DEE76FF0704221462846FFF75B
:101C48004BFF90B957B92B69EC605A1CDDD0013BAA
:101C58002B616B7943F001036B71D6E72246394655
:101C68002846FFF739FF0028EDD00128CBD0012402
:101C7800CBE72DE9F843C6880136B3B20446894656
:101C880013B90420BDE8F8830369002BF9D016F0D6
:101C98000F0807D1C16801330361006859B9038986
:101CA8009E42EED22368E680303303EB481363612B
:101CB8000020BDE8F8838778013F17EA1617F1D1AD
:101CC800FFF765FE0128054602D80220BDE8F88323
:101CD800421C02D10120BDE8F883206843699D4277
:101CE80027D3B9F1000FCCD0E168FFF772FF0546A2
:101CF800002831D00128E8D0431CEBD02068FFF73A
:101D080074FC01460028E5D120684FF40072303099
:101D1800FFF76AFB226829461046FFF72DFE4FF0B1
:101D28000109D062206883789F4209D3C36ADF1B08
:101D3800C762E56029462068FFF71EFE2061B1E70B
:101D480080F80490FFF72EFC0028C3D12268D36ADC
:101D58000133D3620137E5E70720BDE8F8830000C7
:101D68002DE9F74F4FF6FF774FF0FF080646078437
:101D7800444631693068FFF798FC8246002863D1F1
:101D880075692B78002B7BD0E52B06D0E97A01F01A
:101D98003F02090703D50F2A03D037844CE00F2AE6
:101DA80059D1D6F81CB0BBF1000F46D0580641D522
:101DB80003F0BF04F38895F80D8033846B7B4345AB
:101DC8003AD195F800A02AF0400A0AF1FF334FF003
:101DD8000D0A0AFB03FA01204FF000092A4B19F8F3
:101DE80003106A1892F801E06A5C42EA0E2278B39E
:101DF800104600F043FFBAF1FE0F01901CD80AF11B
:101E080001023BF81A00009200F038FF0199814264
:101E180012D1009A924609F10109B9F10D0FDDD1ED
:101E28002B78590603D510B13BF81A3023B9013C79
:101E3800E4B202E0A342C1D0FF2400213046FFF7FC
:101E480018FF8246002894D0504603B0BDE8F08FB2
:101E5800BA42E0D0F0E724B92846FFF7CCFA40456B
:101E6800F2D0B369DA7AD20797D403F10B00834230
:101E7800EAD015F8011B13F8012B9142F7D08CE733
:101E88004FF0040AE0E700BF146800082DE9F74F97
:101E98000B782F2B0746884601D05C2B01D108F11F
:101EA80001080024BC6098F800301F2B00F28C80D9
:101EB80021463846FFF7D0FD7C6103B0BDE8F08FBE
:101EC80025F8020F46468FE02028A0440BEB460277
:101ED80034BF04240024002E00F0A58032F8021D2F
:101EE800202902D02E2940F0A280013EF3E70131DB
:101EF8003BF81120202AFAD02E2AF8D009B144F054
:101F080003044A4632F8020D2E2801D0013EF9D1C9
:101F18004FF0000A4FF0080955463BF811004A1CDB
:101F2800002800F09B80202804D02E2806D1B24239
:101F380000F0898044F003041146EEE7CA4580F0BA
:101F48008580B24211D1B9F10B0F06D182E0B242BD
:101F580003D044F0030400F28180AD00EDB23246B4
:101F68004FF00B094FF0080AE6E77F280DD900214A
:101F7800019200F065FE019A18B15B4B184410F805
:101F8800800C80B244F0020438B1584B13F8011F9A
:101F9800002900F09B808142F8D144F003045F20BF
:101FA800B96901F80A000AF1010AC5E745F0020516
:101FB800F6E75A0781D47969CB7ADB0635D53B68D1
:101FC8001878FFF7E1FAB86098F800302F2B4446EC
:101FD80008F10108F8D05C2BF6D0D7F81CB004F152
:101FE800FF39ABF10205002619F8010F1F2806F189
:101FF80001087FF669AF2F283FF466AF5C283FF4ED
:1020080063AFB8F5807F0ED0012100F019FE50B102
:102018007F283FF655AF364911F8012F002A3FF4C3
:102028004FAF8242F8D1062047E7052045E7002553
:1020380020212BF816500B22B869FFF7D5F90BEBC6
:102048004609294654E7CA45FFF47DAFB9F10B0F9D
:102058007FF47DAF44F003044FF00B09BB691A7895
:10206800E52A04BF05221A70B9F1080F04BFAD00B4
:10207800EDB205F00C030C2B03D005F00302032A84
:1020880001D144F00204A10709D405F00305012D8C
:1020980008BF44F01004042B08BF44F00804BB69CF
:1020A8000021DC723846FFF7D7FC10B93846FFF735
:1020B80057FEBB69DB7A00283FF47BAF04287FF426
:1020C800FCAE13F0040F08BF0520F6E6A0F14101AD
:1020D80019297FF66BAFA0F1610119299EBF20383D
:1020E80045F0010580B25BE794670008296800089D
:1020F8002068000870B50E4600210446FFF7ACFCC6
:10210800A8B9054621692068FFF7CFFA78B963694D
:102118001B78E52B00D01BB90135B54201D170BD44
:10212800054601212046FFF7A4FD0028EAD004282F
:1021380008BF072070BD00002DE9F0478569C76911
:1021480086B00C22044629460DEB0200FFF742F93F
:102158009DF81730DB0770D50023DFF8E481EB72B8
:102168004FF00109E3610B2203A92846FFF732F972
:10217800B9F1050F50D84B46072203F00F0000F1C4
:102188003001392988BF00F13701013A01A810440C
:102198001B094170F1D106A911447E2001F8140CE5
:1021A8009A423ED0E95C202939D12B44072A9BBFAB
:1021B80006A98918202111F8141C03F8011BA3EBA8
:1021C800050198BF01320729F0D900212046FFF701
:1021D80043FC064658BB2046FFF7C2FD064630BB07
:1021E80009F10109B9F1640FBDD10726304606B0DF
:1021F800BDE8F087102102F0010606EB4303DE0379
:1022080048BF83EA080301394FEA5202F3D130F894
:10221800022F002AEED1AFE7B81E4B46F7E701338D
:10222800BEE71346C1E701350CE0012512E0042E94
:10223800DCD19DF81730EB72E7619DF817309B07EA
:10224800F3D5002537F81530002BECD119350D23BF
:10225800B5FBF3F529462046FFF74CFF0646002854
:10226800C4D1013D4FD0E1882046491BFFF7F4FB5C
:1022780006460028BAD1A069DFF8C880FFF7BBF886
:102288004FF6FF79074621692068FFF70EFA0646E0
:102298000028ABD16369D4F81CC05F730F22E9B280
:1022A8000D26DA724A1E724318739876D876064657
:1022B800484516F808E018BF3CF8120003F80E006D
:1022C80006F101069E4418BF01324FEA102A002881
:1022D80008BF48460D2E8EF801A0E9D1484502D026
:1022E8003CF812200AB941F0400119702368012214
:1022F8001A7100212046FFF7BCFC064600287FF42F
:1023080075AF013DBFD121692068FFF7CEF90646B8
:1023180000287FF46BAF202231466069FFF764F82C
:102328000B22A1696069FFF755F8A3696269DB7A36
:1023380003F018031373236801221A7156E700BFCC
:1023480021100100146800082DE9F84F4FF0FF0A2A
:10235800434F05460E4654464FF004094FF6FF78A2
:10236800296919B9B9F1000F6CD063E02868FFF743
:102378009CF9814600285DD168690378002B6CD0F0
:10238800E52B4FD02E2B4DD0C27A02F03F0222F01F
:102398002001A1F1080CDCF1000141EB0C01B14274
:1023A80040D10F2A49D15A0636D5E988427B29847B
:1023B80003F0BF0390F80DA092454CD10278EC6968
:1023C80002F03F02013A0D214A434FF0010C4FF051
:1023D800000E1EF8079000EB090191F801B010F803
:1023E800091041EA0B21BCF1000F19D0FE2A19D8B7
:1023F80024F812108C4601320EF1010EBEF10D0FB9
:10240800E7D10178490604D5FE2A0BD8002124F823
:1024180012105C1EE4B206E09C4203D15246C9E7A2
:102428004145E9D0FF2400212846FFF722FC8146D8
:10243800002895D000232B6106E044B9FEF7DBFFA6
:10244800824504D14FF000094846BDE8F88F4FF6A1
:10245800FF732B84F8E79246E4E74FF00409E9E7B5
:1024680014680008012970B504460D4601D80220F9
:1024780070BD43699942FAD263699D4205D22946E3
:102488002046FFF784FA064608B9002070BD0128E7
:10249800EDD0411C10D0002229462046FFF71CFB36
:1024A80058B923695A1C05D001332361637943F075
:1024B800010363713546DFE7012070BD1FB5019048
:1024C80004A8009140F8041D1446FEF7A3FF011E5E
:1024D80015DB0D4B53F8210008B10022027001985A
:1024E80008B10022027043F8210030B1012C08D154
:1024F8000022694601A8FFF71DF904B010BD0B20A2
:10250800FBE70020F9E700BF0C2400202DE9F04F7D
:1025180091B0914601910646002800F09D80002365
:10252800036002F01E0201A906A8FFF703F90028BC
:1025380040F094804FF4007000F07EFB8046002845
:1025480000F08E800D9003AB01990C9306A8FFF75D
:102558009DFC0B9D044610B9002D08BF062419F0F8
:102568001C0F09F01F0767D004B3042C03D106A879
:10257800FFF7E2FD044647F008070B9DECB1404623
:1025880000F05CFB74B9B771069FF471387829467E
:10259800FEF7FAFF3061EB69F360FB88B460B46161
:1025A8003760B380204611B0BDE8F08FEB7A13F0A6
:1025B800110F4BD119F0040F4AD1380732D5FEF765
:1025C80097FBC0F307230024A873EB73DDF818A06A
:1025D800EC72030C000E2B7468742C776C77AC7754
:1025E800EC779AF800002946FEF7CEFF0123AC7677
:1025F800EC762C756C7581468AF8043090B10146EA
:102608005046DAF82CB0FFF72DFF04460028B6D163
:10261800069809F1FF33C3605946FFF746F80446A8
:102628000028ACD13B07069BDB6AF36148BF47F043
:10263800200735620024A2E7002CA0D1EB7AD90646
:1026480008D419F0020FEDD0DA07EBD5072496E786
:10265800082494E7042492E70924A3E70446A1E7A1
:1026680011249FE72DE9F74F9B460023CBF8003054
:10267800044689461546FEF709FF064620BBE3795E
:10268800002B40F09480A379D80740F19280E3684A
:10269800A768DF1BAF4204F1240328BF2F4600932D
:1026A80097B1A268C2F30803002B71D12068837820
:1026B800013B03EA522313F0FF0314D142B9206906
:1026C80001280BD80226E671304603B0BDE8F08F2A
:1026D80061690193FFF75BF9019BF1E7411C01D1A7
:1026E8000126F0E76061D4F800A0616901935046C3
:1026F800FFF742F90028E5D0019B7D0A00EB0308AB
:1027080029D09AF802209AF801005919914288BFF5
:10271800D51A2B4642464946FEF7AEFA0028DFD1C5
:10272800A3795A060BD5A069A0EB0800854206D903
:102738004FF40072009909EB4020FEF74BFE6D0242
:10274800A3682B44A360DBF800302B44A944CBF8E2
:1027580000307F1BA4E7A269904517D0A3795B06D8
:102768000BD5012300999AF80100FEF799FA002881
:10277800B6D1A37923F04003A3712068009940786B
:1027880001234246FEF778FA0028A9D1C4F8188038
:10279800A168C1F30801C1F50075BD4228BF3D46D7
:1027A80024312A4621444846FEF714FEC8E71E464F
:1027B8008AE7072688E72DE9F74F9B460023CBF8E1
:1027C8000030044689461746FEF760FE0646002894
:1027D80032D1E379002B40F0AE80A379990740F11C
:1027E800AC80A368DF4203D204F1240301934FB9FC
:1027F800A368E268934200F29C80A37943F0200327
:10280800A37119E0A268C2F30803002B7ED12068E7
:102818008378013B03EA522313F0FF03009319D195
:1028280072B9216921B9FFF7D4F901460028DFD030
:10283800012907D10226E671304603B0BDE8F08FC2
:102848006169F0E74A1C01D10126F4E72369616157
:1028580003B92161A3795B060CD52068A2690199A7
:1028680040780123FEF71CFA0028EDD1A37923F064
:102878004003A371D4F800A061695046FFF77CF8C3
:102888000028D7D0009B7D0A00EB03082CD0009AC3
:102898009AF802309AF801002A449A4284BF009AB2
:1028A8009D1A2B4642464946FEF7FAF90028CBD135
:1028B800A169A1EB08018D420AD94FF4007209EB16
:1028C80041210198FEF786FDA37923F04003A37107
:1028D8006D02A3682B44A360DBF800302B44A944A5
:1028E800CBF800307F1B82E7A36998450CD0A2681B
:1028F800E3689A4208D20123424601999AF80100F6
:10290800FEF7BAF900289FD1C4F81880A068C0F370
:102918000800C0F50075BD4228BF3D4624302A4650
:1029280049462044FEF756FDA37943F04003A371BE
:10293800CFE7E36061E71E467EE707267CE770B5D0
:102948000446FEF7A3FD002847D1A3799A0644D58B
:102958005B060DD52068A2694078012304F12401A3
:10296800FEF79EF9002837D1A37923F04003A3711D
:10297800E1692068FEF799FE064670BB256AEB7A86
:1029880043F02003EB72E3682B77A3891B0A6B776C
:10299800E389AB77E37BEB772369AB76C3F3072255
:1029A8001B0C2B751B0A6B75EA76FEF7A1F9C0F3B1
:1029B8000723A875EB75030C000E2B766876AE74AA
:1029C800EE74A379206823F02003A3710123037117
:1029D800BDE87040FEF70FBE012070BD10B504467B
:1029E800FFF7ADFF20B92046FEF750FD00B9206083
:1029F80010BDF8B504460D46FEF748FD064600280A
:102A08006CD1E379002B40F08D80E368AB4204D2AF
:102A1800A27912F0020F08BF1D460022A368A26027
:102A2800002D2FD1A368E268934257D9E360A379B8
:102A380043F02003A37151E00025A368C3F3080302
:102A4800002BEFD0A2699542ECD0A37913F0400F88
:102A580004F124070BD02068012339464078FEF79B
:102A68001FF900283ED1A37923F04003A371206801
:102A780001232A4639464078FEF7FEF8002831D16E
:102A8800A561CFE7206887787F02F3B1013B6A1E12
:102A9800B3FBF7F1B2FBF7F28A4216D37A4213403E
:102AA8006169A360ED1A0029C6D0BD421FD8A3688A
:102AB8002B44A360C5F30803002BBDD02068FEF7A4
:102AC8005BFF48B100EB5525B7E7216969B9FFF706
:102AD80080F80128014603D10226E6713046F8BD88
:102AE800013001D10126F8E721616161DBE7A379B3
:102AF80020689A0705D5FFF76CF8014620B93D46CE
:102B0800D5E7FEF744FF01464B1CEBD00129E3D97A
:102B180023685B699942DFD2A36861613B44A36083
:102B2800ED1BC2E71E46D9E770B586B00546019190
:102B3800002837D0002201A902A8FEF7FBFD0446B1
:102B4800C8B9029B2B604FF4007000F075F8064678
:102B580050B303ABE861AB6101992846FFF796F9DA
:102B68000446304600F06AF804BB696959B1CB7A6B
:102B7800DB0603D4052400232B6010E0029B1878A1
:102B8800FEF702FDA860029BDB88AB800021284687
:102B9800FEF762FF04280446ECD0002CEBD1204657
:102BA80006B070BD0924FAE71124F8E7042CE1D037
:102BB800E1E710B50446FEF769FC00B9206010BDD6
:102BC8002DE9FF4106468846FEF760FC054638B900
:102BD800B8F1000F08D101463046FEF73DFF054623
:102BE800284604B0BDE8F0814FF4007000F024F8E6
:102BF8000746F8B101ABF061B36129463046FFF7EB
:102C0800A3FB042804460ED1356141463046FEF741
:102C180052FC00213046FFF72CF80428044604BF74
:102C28000024346101E00028EFD0384600F006F8AF
:102C38002546D5E71125D3E702F0E0BC02F0E6BC53
:102C48007F2810B516D931B1FF2812D80A4B803821
:102C580033F8100010BD084A32F8114084428BB294
:102C680003D001318029F7D10B4603F18000C0B2AF
:102C780010BD002010BD00BF8A6800080649002367
:102C880031F8132022B1824203D1044A32F81300EA
:102C980070470133F4E700BF8A6900086A6B0008CF
:102CA800064A00F13F4000F57E00116BC0F38F2308
:102CB8000120984008431063704700BF0038024065
:102CC8002DE9F04F85B000F13F459DF8384002945A
:102CD80005F57E059DF83C40DFF8A480039402F1D9
:102CE800FF3C01930024C5F387254FF0030A5FFAE0
:102CF8008CFC41FA04F6F3073BD5012338F815603C
:102D0800D0F80CE003FA04F949EA060628F8156039
:102D180004FA03F60AFA06F7029BFF4303FA06FBD6
:102D280007EA0E0E4EEA0B0EC0F80CE0D0F800E0F1
:102D380002FA06FB0EEA070E4EEA0B0EBCF1010F73
:102D4800C0F800E015D8D0F804E0019B2EEA090984
:102D580003FA04FE1FFA8EFE49EA0E09C0F8049031
:102D6800D0F808E0039B07EA0E0703FA06F6374394
:102D780087600134102CBCD105B0BDE8F08F00BFCE
:102D8800322400202DE9F047054616461F469DF8D7
:102D980020809DF824900C4669B1FFF781FFCDF89B
:102DA8002490CDF820803B46324621462846BDE88F
:102DB800F047FFF785BFBDE8F0872DE9F0470646E5
:102DC800174698469DF820909DF824A00D4629B3F3
:102DD800FFF766FF00200F2145FA00F3DB070ED549
:102DE800C20806EB820200F00704136AA40001FA85
:102DF80004FE23EA0E030AFA04F41C4314620130A9
:102E08001028E9D1CDF82490CDF820803B462946FA
:102E180030460222BDE8F047FFF752BFBDE8F08711
:102E280003885B0608D503899B07FCD003891B062A
:102E3800F9D40A44914200D1704711F8013B8381CB
:102E480003899B07FCD003891B06F9D48389F1E722
:102E580010B50488640609D50489A407FCD0048940
:102E68002406F9D40B4492B2994200D110BD828154
:102E78000489A407FCD004892406F9D4848901F8BC
:102E8800014BF1E77047000007B5034658B9032125
:102E980005228DE8060002460C48E021FFF78DFF69
:102EA80003B05DF804FB012808D1032205238DE84F
:102EB8000C0000231A4638210548EFE70328EFD114
:102EC80005210448FFF7DEFFEAE700BF00000240E3
:102ED800000402400030014073B50446A0B9032540
:102EE8000526034602464FF4806116488DE86000C7
:102EF800FFF763FF8DE860001348234622460C2144
:102F0800FFF75BFF02B070BD012809D1032105233B
:102F18008DE80A0000231A464FF460410948EFE79C
:102F2800022808D1032205238DE80C0000231A4645
:102F38000D210648E4E70328E4D105210448FFF7FA
:102F4800A1FFDFE700040240000802400020024021
:102F58000038004007B5034658B9032106228DE81A
:102F6800060002460C483821FFF727FF03B05DF83A
:102F780004FB012809D1032206238DE80C00002355
:102F88001A464FF4E0510548EEE70328EED1062132
:102F98000348FFF777FFE9E7000402400008024012
:102FA800003C004007B5034658B9032105228DE8C7
:102FB8000600024664210C48FFF7FFFE03B05DF8E7
:102FC80004FB012808D1032205238DE80C00002307
:102FD8001A464FF4E041EEE70328EFD105210348F4
:102FE800FFF750FFEAE700BF00100240003401403D
:102FF80037B5034658B9032105228DE80600024675
:1030080010484FF46071FFF7D8FE03B030BD0128B7
:1030180011D10023032405251A464FF400610948FD
:103028008DE83000FFF7C9FE00238DE830001A460E
:10303800C0210548E7E70328E7D105210348FFF742
:1030480021FFE2E700140240001C0240005001404A
:1030580007B5034660B9032105228DE8060002463C
:103068004FF4E0410648FFF7A8FE03B05DF804FB03
:103078000328FAD105210348FFF704FFF5E700BF4D
:103088000018024000540140F0B587B0044601A87A
:103098001F460E461546FDF758FD434B9C4216D178
:1030A800424A536C43F4805353643046FFF7ECFEB6
:1030B8000023ADF808303E4B9C4222D13B4A536C6A
:1030C80043F4001353643046FFF7C2FF16E0394B50
:1030D8009C4208D1354A136C43F48043136430464C
:1030E800FFF7FAFEE4E7344B9C4231D12F4A136CC8
:1030F80043F4004313643046FFF72CFF0023ADF878
:103108000830BDF83420ADF81220BDF83020ADF8F5
:10311800062000234FF40072ADF81070ADF80430AB
:10312800ADF80E2065BBADF80A50ADF80C502388F9
:1031380023F040031B041B0C238001A92046FDF744
:10314800E5FC23889BB243F04003238007B0F0BD21
:103158001A4B9C4208D1154A536C43F400535364EC
:103168003046FFF71FFFC9E7154B9C42A3D10F4A12
:10317800536C43F4801353643046FFF739FFBDE7BF
:10318800012D02D1ADF80A30CFE7022D04D1ADF8F8
:103198000A50ADF80C30CAE7032DC8D10223ADF8A8
:1031A8000A300123F5E700BF003001400038024033
:1031B8000054014000380040003C00400034014009
:1031C80000500140184B984237B504460D4613D1BC
:1031D8004FF482730022009301922023FFF754FFDB
:1031E800124B9C4216D14FF4827300220093019235
:1031F8002023294620460BE00D4B9842E8D00D4B82
:10320800984209D14FF4827300220093019220233F
:10321800FFF73AFF03B030BD074B9842F2D0074B97
:103228009842DDD1EEE700BF003001400054014074
:1032380000380040003C004000340140005001408C
:103248002DE9F04172B6214B2149224E224D234FE0
:10325800DFF890E004221A8310225A8311230B709E
:103268001F4B34463269D0071FFA82FCFAD5D006C4
:103278000CD492061AD51F602A69D2B28A5C12024F
:103288005A61226912F00102FBD11A601CF0020F88
:10329800E8D11F602A6992B21EF8022012025A6110
:1032A800226912F00102FBD11A60DBE728691A696A
:1032B800D4F8108018F0010F92B2F8D1C0B2120AF7
:1032C800DF280A54E2D162B6BDE8F081000402406A
:1032D800142B002000080240000C02400000555545
:1032E80000100240B50000202DE9F04172B6DFF869
:1032F80018E1DFF818C13E4A3E4E3F4C3F4D3021A1
:103308007046DEF81070FB07FBD517F0100FDCF8DD
:10331800103041D1BF06DBB22DD52F2B146020D839
:10332800D5F8008008F101072F6098F800804FEA6F
:103338000828C2F81480D0F8108018F00108FAD1D3
:103348000131C2F80080C9B2002BDAD12F2901D986
:103358000021D6E7C1F12F01C9B2013139442960F2
:10336800F6E7274FFB5C1B025361036913F0010367
:10337800FBD11360C5E71769D0F8108018F0010F6A
:10338800BFB2F8D1DFF878803F0ADF2B08F8037066
:10339800B7D162B6BDE8F08117F0020F0BD1194F13
:1033A80014603F689BB2FB5C1B025361036913F016
:1033B8000103FBD1DDE717F0040FA2D1BF060AD540
:1033C800376814609BB2FB5C1B025361036913F0FE
:1033D8000103FBD1CDE717691FFA87F80769FF07D3
:1033E800F9D49BB237684FEA182807F8038088E7B2
:1033F80000100240C8200020000055555C2E012016
:10340800142B0020C420002000080240000C0240B9
:10341800154D164CDFF85880012280B52A83042206
:103428002A8310222A83582284F8DE200226FF27C6
:10343800FFF75AFF6E8394F8DF3084F8DE70302B84
:1034480006D0312B07D0582384F8DE302E83EFE7DF
:1034580001F05AFCF7E701F045FC41F6FD73D8F896
:103468000020D754EFE700BF00040240142B0020CF
:10347800C42000202DE9F04172B62C4DDFF8C0E0E1
:103488002B4A2C4C2C48DFF8BCC02C4E29462F69FF
:10349800FB07FCD517F0100FDEF810301AD1BF0665
:1034A800DBB209D51060F35C1B0253610B6913F0A2
:1034B8000103FBD11360EAE71769D1F8108018F00F
:1034C800010FBFB2F8D13F0ADF2BF754DFD162B644
:1034D800BDE8F08117F0020F0BD1DCF80070106026
:1034E8009BB2FB5C1B0253610B6913F00103FBD118
:1034F800E0E717F0040FCAD1BF060AD527681060A5
:103508009BB2FB5C1B0253610B6913F00103FBD1F7
:10351800D0E717691FFA87F80F69FF07F9D49BB23C
:1035280027684FEA182807F80380B0E70008024028
:1035380000100240C820002000005555142B002020
:10354800000C0240C42000201B4E1C4CDFF8708089
:10355800012280B53283042232831022328358221A
:1035680084F8DE200225FF27FFF784FF758394F88F
:10357800DF3084F8DE70303B032B05D8DFE803F03A
:10358800090C021401F0CAFE582384F8DE30358392
:10359800EAE701F0CDFEF7E701F060FD41F6FD73C3
:1035A800D8F80020D754EFE794F8DD1094F8DC0041
:1035B80001F0D2FEE8E700BF00040240142B00200F
:1035C800C42000202DE9F743824E834C834D02230B
:1035D80073830423738310237383112323702B684D
:1035E8003BB901227E497F48FEF768FF012300BBF3
:1035F8002B607D4D7D49032205F58C70FEF786FF13
:10360800002840F0E48001AB102205F5807105F533
:103618008C70FFF727F840B9019B102B05D1B5F83E
:10362800002140F296239A4223D07148FFF7D6F939
:103638000323704F704D63707049DFF8CCE10122AD
:10364800728372B63B6913F00100FBD013F0100FC0
:10365800F8D113F0200824D0C5F800E00B69DBB2DC
:10366800E35C1B026B613B6913F00103FBD12B6028
:10367800E8E728465D4902F071FAD5F82431604A36
:10368800C5F8143105F5807705F588753B4603CBF9
:10369800AB42106051601F4602F10802F6D10023C8
:1036A800C7E70B695FFA83FC2B69D7F8109019F00C
:1036B800010F9BB2F8D11B0ABCF1DF0F04F80C30E4
:1036C800C0D162B6328394F8DF30222B39D0232B55
:1036D8006CD0212BB4D1A3786178434A41EA032105
:1036E800137863B341B3032981BFB2F80431E0789A
:1036F80004395943D2F8143195BFC90101EBC011FF
:10370800703901F5C8717F3B8B4207DC80220021AC
:103718003B4801F08EFF84F801808DE73448FFF7BD
:1037280068F948B901AB802235493148FEF79AFF5C
:1037380010B9019B802BEED04FF00208EBE78046D2
:10374800E9E7022372833383A3786178264A41EA42
:103758000321137833B321B3032981BFB2F80431AD
:10376800E07804395943D2F8143195BFC90101EB07
:10377800C011703901F5C8717F3B8B4211DD1C48BF
:10378800FFF737F968B901AB80221E491848FFF7DF
:1037980012F830B91648FFF7D2F810B9019B802B00
:1037A80000D0022002236070738345E7DFF85CE0F5
:1037B800134A0EF1100C734603CB63451060516039
:1037C8009E4602F10802F6D10023637034E7022313
:1037D8002FE700BF00040240142B002078260020A9
:1037E800E46D0008482400207C2600205C2D012080
:1037F800942700200008024000100240000C0240FC
:10380800162B0020182B0020000055557C2700207F
:1038180008B501210220FDF75DF90749074817237C
:103828000B60002301228B71CB71BDE808400A713F
:103838004A71FDF701B900BF0C2B002000040240BB
:1038480008B501210420FDF745F907490748372342
:103858000B6000230B718B7103234B710223CB7117
:10386800BDE80840FDF7E8B80C2B0020000802402E
:1038780008B501211020FDF72DF9084908484FF433
:103888007F430B6000230B718B7101234B71022363
:10389800CB71BDE80840FDF7CFB800BF0C2B002066
:1038A8000010024008B501210820FDF713F9084966
:1038B80008484FF6FF730B6000230B718B710323CD
:1038C8004B710223CB71BDE80840FDF7B5B800BFC6
:1038D8000C2B0020000C02402DE9F047294B2A4E02
:1038E800DFF8B0C0294ADFF8B090824610250424DA
:1038F80027481D83B0461C8367464FF0010EDCF84D
:10390800101011F0010FFAD011F0040F0CD1106053
:10391800D9F8101089B2715C09025161396911F046
:103928000101FBD11160EAE711F0020F0ED110601E
:10393800D9F8101041F4C04189B218F801100902F1
:103948005161396911F00101FBD1EBE711F0300F3A
:10395800D5D111693E69F60789B2FAD4C1F30126B7
:1039680008EB4636BAF1000FC9D009044BBF5D8396
:103978001D835C831C834CBFA3F81AE0A3F818E0EE
:10398800BDE700BF00040240142C002000100240D4
:103998000000555500080240000C02402DE9F04790
:1039A800294B2A4EDFF8B0E0294ADFF8B080DFF86B
:1039B800B0A081461025042426481D83B4461C83E4
:1039C8007746DEF8101011F0010FFAD011F0040F4D
:1039D8000CD11060D8F8101089B2715C09025161DD
:1039E800396911F00101FBD11160EAE711F0020F0A
:1039F8000ED11060D8F8101041EA0A0189B21CF8FB
:103A0800011009025161396911F00101FBD1EBE79D
:103A180011F0300FD5D111693E69F60789B2FAD491
:103A2800C1F302260CEB4636B9F1000FC9D00904E0
:103A38004BBF012101215D831D834BBF5C831C8328
:103A480059831983BDE700BF00040240142C0020ED
:103A5800001002400000555500080240000C0240CA
:103A680000E0FFFF304B10222DE9F0471A832F4C5E
:103A78002F4E304FDFF8C8E0DFF8C89004228446A4
:103A88001A832D482D4A3546A046316911F0010F99
:103A9800FBD011F0040F0CD11060DEF8101089B2C1
:103AA800615C09025161296911F00101FBD11160C2
:103AB800EBE711F0020F0DD11060DEF8101041EAAB
:103AC800090189B2795C09025161296911F0010182
:103AD800FBD1ECE711F0300FD7D111692C6914F044
:103AE800010F89B2F9D14FEA112A1AF0080F14BF51
:103AF8003C4644460AF0070A04EB4A34BCF1000F7E
:103B0800C3D011F4004F4FF0100A4FF0040115BF55
:103B1800A3F81AA0A3F818A05983198315BF012187
:103B2800012159831983B0E700040240142C0020B6
:103B38000008024000000010000055550010024027
:103B4800000C024000E0FFFF254B2DE9F043102256
:103B58000421244D1983244E5A83244CDFF8908085
:103B6800DFF890E00122AC461746286910F0010FF3
:103B7800FBD010F0020F16D1C4F8008030691FFA8C
:103B880080F910F4805F14BFC0F30B0009EB02301A
:103B98001EF8000000026061DCF8100010F001005F
:103BA800FAD12060E1E7C006F6D4306900F00109D7
:103BB80010F0080005D0B9F1000F02D159835F83D6
:103BC800EAE719831F8328B9B9F1000F0CBF012256
:103BD8000322E1E7B9F1000F18BF0222DCE700BFBA
:103BE8000004024000080240000C0240001002409D
:103BF80000005555142C00202DE9F047284B294E7C
:103C0800294F2A4CDFF8A890DFF8A8C00421102219
:103C1800198300255A83B0464FF0010E326912F01D
:103C2800010FFBD012F0020F17D1C4F800903A69C7
:103C380012F4805F1FFA82FA1ABF42F4005292B25D
:103C48000AEB05321CF8022012026261D8F8102033
:103C580012F00102FAD12260E0E7D206F6D43A69FE
:103C680092B212F0080F03D05983A3F81AE0EDE7D7
:103C780012F00F0A1983A3F818E00FD002F00B0214
:103C8800032A03D1002814BF01250225BAF1040F25
:103C9800DCD1002814BF02250125D7E75546D5E712
:103CA8000004024000080240000C024000100240DC
:103CB80000005555142C0020354B10222DE9F047F3
:103CC80020281A834FF004021A8326D0402826D0D1
:103CD800802814BF002407242E482F4F2F4ADFF8CE
:103CE800C080DFF8C0E0DFF8C0C03D46814610263E
:103CF800396911F0010FFBD011F0040F11D1C2F88E
:103D080000E0DCF8101089B2415C090251612969B0
:103D180011F00101FBD11160EAE70124DCE703247B
:103D2800DAE711F0020F0ED1C2F800E0DCF810104B
:103D380041F4005189B2415C09025161296911F0CD
:103D48000101FBD1E7E711F0300FD1D111692869E2
:103D580010F0010F89B2F9D104EA112A1AF0040F00
:103D680014BF4046484611F4004F4FF0040115BFF8
:103D78005E831E83598319830AF0030A14BF012145
:103D8800012100EB8A3014BF59831983B0E700BFC3
:103D980000040240142C00200008024000100240D9
:103DA8000000001000005555000C0240264ADFF8BC
:103DB800ACC0102304212DE9F04F1183234C538309
:103DC800234BDFF89CE0234F402814BFA3469B46B3
:103DD8009946E2460125DCF81040E607FBD5A60720
:103DE8000ED41D4C3C60DEF81040A4B21C5D2402C9
:103DF8007C61DAF8104014F00104FAD13C60EAE77B
:103E0800E606F6D4DEF8106006F0F008B8F1E00F28
:103E1800B4B20DD1DEF81030DB4303F007030BEB2F
:103E2800433334074BBF5183118355831583E0E730
:103E38008028DED1B8F1F00FDBD1E34303F00703AC
:103E480009EB4333EDE700BF000402400000001017
:103E5800142C0020001002400000555500080240B4
:103E6800000C02402DE9F04F1C4BDFF880A01C4EDF
:103E78001C4F1D4DDFF87890042210211A83D44678
:103E88005983B0464FF0010E3169CC07FCD58C0739
:103E98000ED4C5F80090396989B21AF801100902E0
:103EA8006961D8F8104014F00104FAD12C60EBE7EE
:103EB800CC06F6D43C6904F0F00B8345A1B2F0D1EE
:103EC800C94301F007010CEB413A21074BBF5A8364
:103ED8001A83A3F81AE0A3F818E0E2E70004024006
:103EE80000080240000C024000100240142C002080
:103EF800000055552DE9884872B6A74B1A68A74B9C
:103F0800012A17D1A649A748A74CA84EA84F0422B2
:103F18001A830D4602460B699B07FCD404602B6983
:103F28009B0702D500231360F5E73369FB5C1B028E
:103F38005361F4E7022A27D110221A8304221A8334
:103F48009848974B984F994D994E1C4602461969C7
:103F580001F006010629FAD00760196949070DD54D
:103F6800216989070DD4296941F40051715C09025E
:103F78005161F5E72969715C0902516121694907B5
:103F8800F8D500211160E2E7032A02D10020FFF7EB
:103F9800A3FC042A02D10020FFF700FD052A02D164
:103FA8000020FFF75FFD062A01D10120EFE7072A6D
:103FB80001D10120F0E7082A01D10120F1E70D2AFB
:103FC8004FF0040165D110221A8319837949744E80
:103FD8007448754F754DA1F580439E46B44640F62A
:103FE800F67840F6F77903F5405A03F5E04B326965
:103FF800D407FCD5540734D407602C6914F4805FC7
:10400800A2B2C4F30B041AD00C5D2402446141F639
:10401800F674A24231D041F6F774A2422FD041F68D
:10402800F874A2422DD041F6F974A24208BF59464D
:10403800DCF8102012F00102FAD10260D7E71C5D0B
:1040480042454FEA042444611DD04A451DD040F63C
:10405800F874A2421BD040F6F974A24208BF534636
:10406800E6E79207E4D407602A692A6942F4004225
:104078001EF8022012024261DAE74E49D8E74E499B
:10408800D6E74E49D4E74A4BD2E74D4BD0E74D4BE4
:10409800CEE70E2A3DD1424C19831022DFF828C101
:1040A800DFF80C81414D3F49DFF8FC905A8300202E
:1040B800A6460426012710F0080F14BFE346C3469E
:1040C800226912F0010FFBD012F0020F12D1C1F8D1
:1040D80000902A6900F0070A92B20BEB4A3A1AF8E4
:1040E800022012024A61DEF8102012F00102FAD111
:1040F8000A60E0E7D206F6D42A6912F0E00FF2D19E
:1041080002F00F00D2064BBF5E831E835F831F83BE
:10411800E9E70F2A35D1224D244E2248DFF888C01E
:10412800DFF88C80042210211A8300245983AE46BC
:104138000127296911F0010FFBD011F0020F11D1ED
:10414800C0F800C031694FEA443919FA81F111F811
:10415800081009024161DEF8101011F00101FAD1CE
:104168000160E6E7C906F6D4316911F0F00FF2D123
:1041780001F0070409074BBF5A831A835F831F8323
:10418800E9E7A2F11001012901D8FFF7DDFC122AA5
:104198001CD10120FFF730FDB8290020000402409F
:1041A800000802400010024000005555000C024073
:1041B800142C0020146C0020147C0020148C002087
:1041C800143C0020144C002000000010132A01D1D8
:1041D8000020DFE7092A02D11020FFF76DFD0A2A27
:1041E80001D12020F9E70B2A01D14020F5E70C2A5C
:1041F80001D18020F1E7142A71D104221A835E4C80
:10420800DFF888E15D4EDFF888C15D485D4F102218
:104218005A835D4B00217546A046DEF8102012F047
:10422800010FFAD012F0040F0BD11F60326992B25D
:10423800A25C12025A612A6912F00102FBD11A60CB
:10424800EBE712F0020F0CD11F60326942F4005202
:1042580092B2A25C12025A612A6912F00102FBD1E1
:10426800EDE712F0100FD8D1D6F8109019F0E00F42
:10427800D3D1920607D50A021F605A612A6912F043
:104288000102FBD1DBE71A692969C90792B2FAD49E
:10429800120AD1B211F0040F01F0030914BF6446E9
:1042A800444604EB893411F0400F4FF0040914BF61
:1042B800A0F81A90A0F8189011F0200F4FF01009EC
:1042C80014BFA0F81890A0F81A90402A4FF00109DE
:1042D80006BFA0F81A901146A0F818909DE7152A75
:1042E80002D14020FFF762FD162A01D18020F9E7AC
:1042F800172A02D1D020FFF7B5FD182A01D1702066
:10430800F9E7192A4FF010022FD1204D1E491D4EF2
:104318001A4FDFF864E01A8304241C83AC464FF07C
:104328000108286910F0010FFBD010F0040F0DD11F
:104338000E60386980B21EF8000000024861DCF89F
:10434800100010F00100FAD10860EAE710F0020F3F
:1043580004D10E60386940F40050EBE7C0065EBF38
:104368005A835C83A3F81A80E9E7012159835A83A9
:1043780004225A83FEE700BF142C0020000C0240E0
:104388000004024000005555001002400008024099
:104398000000001038B5184CFFF73AFAFFF768FA32
:1043A800FFF780FAFFF74CFA0223238300F068F83E
:1043B80001256583FEF744FF258300F0C1FB002833
:1043C800F7D00E4B1B68FE2B03D1FFF7FBF800203C
:1043D80038BDFF2B02D101F085F8F8E7FD2B02D19B
:1043E800FFF716F8F3E7FC2B02D1FFF7ADF8EEE77D
:1043F800FFF780FDEBE700BF00040240B82900206A
:1044080002780B781AB11BB94FF0FF3070471BB90F
:104418000E310E3001F042BB0120704710B52E213D
:10442800044601F0DFFB18B1844201D0013010BD11
:10443800004810BDE46D000810B5FFF7EFFF0C4908
:10444800044601F02BFB88B10A49204601F026FBFF
:1044580060B10949204601F021FB38B107492046DF
:1044680001F01CFBB0FA80F0400910BD012010BD1E
:104478004F6D000830AE0008546D00084A6D000802
:10448800034B044A9A614FF48072DA61704700BFA7
:10449800142C01205C2C01202DE9F04F8BB005462F
:1044A800884601466846FEF73FFB00286AD1DFF8D8
:1044B800EC90364E4F46D9F80030FF2B5DD033498B
:1044C8006846FEF77DFB0446002857D1737A002B17
:1044D80053D0337A13F0060FEDD1D8061AD52846F3
:1044E800FBF76EFE2A498246284601F028FB294937
:1044F800284601F024FB2846FBF762FED128DAD8CB
:1045080041462846FFF7C8FFC4B2002C36D105F84B
:104518000A40D0E71F48FFF78FFF0028CBD0B069CB
:10452800037813B91B4901F019FB4146B06901F042
:10453800D3FA0028BFD0D6F818B03C68164BA0EBC9
:104548000B012202484202EB030A4841D0541149A8
:104558000AF1010001F002FB1F2259460AF10E0080
:1045680001F02BFB00238AF82D3029460AF12E0092
:10457800013401F0F3FA3C609DE700246846FEF739
:1045880018FB20460BB0BDE8F08F00BF142C0120AB
:104598000D6E00081D2C0120142C0020BC290020C1
:1045A80030B5ADF54D7D0C46174D0146684601F016
:1045B800D5FA00232B60FCF705FB0122134940A81C
:1045C800FDF77CFFC8B921466846FFF765FF04463A
:1045D80098B90F4B29680F484FF4807201F017F90A
:1045E8002B680C4A21469C4203DB01200DF54D7DCA
:1045F80030BD200201348154F5E70749074801F02E
:10460800ADFA0020F2E700BFBC290020E46D0008E5
:1046180009440008142C00200F6E0008342C0120D7
:10462800F0B5374CADF5177D002506462560FCF73B
:10463800C9FA012233490AA8FDF740FF002859D1D9
:1046480031466846FEF770FA00284ED12E4E2F4D9F
:1046580006F109072368FE2B04DC31466846FEF79D
:10466800AFFA90B16846FEF7A4FA01222549002066
:10467800FDF724FF2548264B21684FF4807201F08E
:10468800C6F801200DF5177DF0BD737A002BE9D02F
:10469800337A13F0060FDDD103F01003002B14BF9B
:1046A800012300232B7004D13846FFF7C5FE0028EC
:1046B800D0D03946681C01F051FAB1690B7805F180
:1046C8000E0073B11F2201F078FA002385F82D300F
:1046D800002385F82E302368013305F580752360A3
:1046E800B8E7394601F03AFAF2E70A490A4801F010
:1046F80035FABAE70949084801F030FA2846C1E70F
:10470800BC290020E46D0008142C0120142C002082
:1047180009440008E56D0008342C0120FA6D0008F2
:104728002DE9F0430546ADF26C4DFCF74BFA2846EF
:10473800FBF746FD04382C180422B149204601F045
:1047480015FA0422AF490646204601F00FFA012265
:104758008146AD498EA8FDF7B1FE044648B1AB4984
:10476800AB4801F0FBF9002630460DF26C4DBDE870
:10477800F0830122294605A8FDF7C8FE50B1A549D6
:10478800A34801F0EBF9264601229F490020FDF7D6
:1047980095FEE9E7002E49D16B46102201A905A82C
:1047A800FDF760FF10B9009B102B07D09A49984875
:1047B80001F0D4F905A8FEF711F9E5E79DF80B40DB
:1047C800012C4DD0022C4ED0032C4FD0082C51D0A8
:1047D800092C53D00A2C55D00B2C57D00C2C59D05F
:1047E8000D2C5BD00E2C5DD00F2C5FD0122C61D01D
:1047F800162C63D01A2C64D01B2C66D01C2C68D0C5
:104808001D2C6AD0212C6CD0222C6ED0232C70D079
:10481800282C72D0292C74D02B2C76D02C2C78D024
:104828002D2C7AD0362C7CD07C49C0E7054604462E
:104838007B49774801F092F97A49B9F1000F4FF6B0
:10484800FC7801F1040014BF4FF4803801466B4630
:10485800424605A8FDF706FF002866D00026A9E70E
:104868004FF40055E4E74FF48045E1E74FF4804505
:104878001224DDE74FF480350F24D9E74FF4803553
:104888001824D5E74FF480351724D1E74FF4803545
:104898001524CDE74FF400450324C9E74FF48035CC
:1048A8000424C5E74FF400350524C1E74FF48045DB
:1048B8001024BDE74FF420450D24B9E74FF4004517
:1048C800DAE74FF480450924B2E74FF400450A249B
:1048D800AEE74FF480350B24AAE74FF400350C24DB
:1048E800A6E74FF400450624A2E74FF480350724D5
:1048F8009EE74FF4003508249AE74FF480451924C1
:1049080096E74FF400350E2492E74FF4003516244D
:104918008EE74FF4005511248AE74FF4804513249D
:1049280086E74FF40035142482E7009FB8451FD16D
:104938006B464FF480323C4905A8FDF793FE0028EA
:104948008CD1009BB3F5803F08EB030710D16B4671
:10495800012201A905A8FDF785FE00287FF47EAF96
:10496800009B012B04D13149294801F0F7F875E77C
:104978001EB9AF4237D02E4919E7B9F1000F09D156
:10498800284B3A0A1F703F0C5A709F7083F80390A7
:10499800FF260FE7B7F5005F17D1224B41F6F872F3
:1049A8009A5C472A07D141F6F9729B5C422B14BFE7
:1049B8000126FD26FEE64D2A17D141F6F9729B5CC9
:1049C800372B14BF0126FC26F4E6B7F5804F0ED02E
:1049D800B7F5004F0DD0B7F5803F0CD0B7F5003FC5
:1049E8000BD01449C0E72646E4E60126E2E6022693
:1049F800E0E60326DEE60426DCE60526DAE600BF66
:104A08004E6D0008536D0008E46D0008FA6D00084B
:104A1800342C0120586D0008686D0008756D000879
:104A28008A6D0008142C0020000000109A6D000800
:104A3800B86D0008CF6D0008DFF834D0002103E01E
:104A48000C4B5B58435004310B480C4B42189A42AC
:104A5800F6D30B4A02E0002342F8043B094B9A4282
:104A6800F9D300F013F800F0A5FDFFF793FC7047A9
:104A7800000002201CB3000800000020BC23002016
:104A8800BC230020642E0120FEE70000264AD2F84D
:104A9800883043F47003C2F88830244B1A68002128
:104AA80042F001021A6099601A6822F0847222F4B6
:104AB80080321A601E4A5A601A6822F480221A60EC
:104AC800D9601A6C1B4942F080521A640A6842F491
:104AD80040420A609A689A609A6842F400429A6072
:104AE8009A6842F4A0529A60134A5A601A6842F0CF
:104AF80080721A601A689201FCD5104A40F205616A
:104B080011609A6822F003029A609A6842F00202E1
:104B18009A60064A936803F00C03082BFAD1024BFB
:104B28004FF000629A60704700ED00E000380240E4
:104B380010300024007000401064000A003C02405D
:104B4800F8B55B4F97F8DF403B78042C3D4600F002
:104B5800888008D8012C5FD01CD3022C6DD0032C80
:104B680073D0002426E0112C00F091800BD8052C7E
:104B78007BD0102CF5D14F48FFF7D2FD00287DD00F
:104B880000246C7016E0FE2C00F08E80FF2CE8D11B
:104B980001240FE01B02484A99189B5C4E1C5BB12C
:104BA8004649474800F0CBFF3146454800F0C7FF6B
:104BB80000237B702046F8BD91F82E30C3B12E310A
:104BC800404800F0CBFF3D493E4800F0B8FF314671
:104BD8003C4800F0B4FF3046FFF720FC3A493B4E12
:104BE80000F05CFF30B903236B70FE233360E1E70C
:104BF8003349E5E73348FFF793FD306028B1FF28D4
:104C080014BF012302236B70D4E7042330493148D1
:104C18006B7000F0A3FFCDE72948FFF701FD28B12D
:104C28002D4B00241B687C70BB70C3E70123284907
:104C380028486B7000F092FF93E71B021E4A9918F0
:104C48009B5C7B700E31B81CF4E71D48FBF7B8FA83
:104C58001B4B18B101381A5C2F2AFAD100241C54B6
:104C6800A8E7174B00241C70A4E739461B4800F03E
:104C780075FF1A491248FFF793FCD0E70E4B184905
:104C8800425CC2540130B0F5804FF9D178E70A4848
:104C980080240022013214FB03210144802A11F8E8
:104CA800011CA954F6D15CE7084B00241C6081E77D
:104CB800142B002029AE0008142C00200D6E0008CB
:104CC800C02900205C2D01204A6D0008B829002069
:104CD800342C0120162B0020BC290020C02A0020DB
:104CE800296E000810B5074C48220021206800F002
:104CF800A0FC22680023F02102F823100133122BB4
:104D0800FAD110BDBC2000202DE9F04FC04B8DB06A
:104D18001B680093BF4B1F68BF4B1A68D378927803
:104D28000192BE4A9EB203F00703C3F10C0392F846
:104D380042E082F8403007F1100900214FF03008B6
:104D4800BEF1000F03D0CBB29E4508BF0026019BE1
:104D58005818C51000F007006D014300ADB2C6F346
:104D6800CF0B029308FB01FA00245FFA84FC0BEBDB
:104D78005C03009A03F01F032B4412FA83F303F534
:104D8800C053029A1B7883F0800302EB031303F5E8
:104D98000063009AD25C01339BB21846009B1CF05A
:104DA800010F1B5C1ABF120103F00F031B0902F06D
:104DB800F00213439A4AD25C0AEB04033B440134E1
:104DC8002A2C5A74D1D10131A029B9D1934B93F827
:104DD8004130029306F007034FF0000A0993029A44
:104DE8005FFA8AF39A4205D88E4BC3F800900DB04B
:104DF800BDE8F08F8C4B884A1E68106806EB8A065F
:104E08004FF0000BF278B37812F0100F14BF09229C
:104E180008221B01815C8AB201F003018DF82C1075
:104E2800C2F381018DF82D10C2F3011192098DF89A
:104E38002F2002788DF82E1012F0040F14BF1022C4
:104E480008220192013A089296F803C031789A1C18
:104E580092B21CF0400F049218BF089AA1F11001F9
:104E68001ABFA2EB0B0292B21FFA8BF289B20A4464
:104E78001FFA82F8B8F18F0F00F28F80009AD25C87
:104E880003920133009A9BB20024D35C05930CF083
:104E9800200522462146234620460795E5B2069579
:104EA800079D002D00F08580C4F1070E0FFA8EFED5
:104EB800012505FA0EF5059FADB205EA070C039F1B
:104EC8003D4045EA4C0545FA0EFE032C0CAD7544F1
:104ED80072D8BEF1000F15F8045C4FEA440E14BFF7
:104EE8000027032707FA0EF705FA0EFE3A434EEAA3
:104EF800030ED2B25FFA8EF30134082CCED1747847
:104F0800099D2C440FFA84FC04F00304022C6BD096
:104F1800032C00F08B80012C40F09C809D019401B3
:104F28009B08920843EA801342EA811244F03F0446
:104F38008908EDB2DBB28008E4B2D2B241F0C00118
:104F48004FEAAC0C08EB48073F01BCF1270FBFB292
:104F58001FFA8CFE07DCBC4419F80C8001EA080132
:104F6800014309F80C100EF1010189B2272906D86E
:104F7800394419F8010002401A4309F801200EF1DA
:104F8800020E1FFA8EFEBEF1270F06D8774419F8D5
:104F980007301C402C4309F807400BF1010B01991D
:104FA800049B5FFA8BF291423FF64EAF0AF1010A79
:104FB80015E70FFA84FE7BE7069F15F8045CBEF13F
:104FC800000F07F003074FEA470714BF4FF0000E22
:104FD8004FF0030E0EFA07FE05FA07F74EEA010135
:104FE8000743C9B2F8B287E71D0114011B0912096A
:104FF80043EA001342EA011244F00F04C1F3071117
:10500800EDB2DBB20009E4B2D2B241F0F00197E7A9
:10501800C8200020C4200020C0200020142B00201D
:10502800CC2000205C2E0120BC2000209D00940094
:105038009B09920943EA800342EA810244F003048F
:10504800C1F38711EDB2DBB28009E4B2D2B241F00C
:10505800FC0175E7FF24002572E700BF154B164ACF
:105068001B6810331360154B154A1B681360154AEB
:1050780003F5C0531360144B144A1A60144B4FF0D5
:1050880086421A60134B00221A60134B134A1A60A7
:10509800134B144A1A60144B144A1A60144B6FF0DD
:1050A80015021A60134BC0221A60134B134A1A6078
:1050B800704700BFC4200020EC2A0020C820002030
:1050C800E42A0020E82A0020E02A0020146C0020AE
:1050D800D4210020F42A0020E021002000002042F2
:1050E800D82100200000C842DC210020000096439F
:1050F800D0210020CC210020E4210020CDCC4C3F41
:105108002DE9F04F764B044618682DED028B07EE1B
:10511800900AF8EEE77A83B017EE900A0191FBF750
:10512800BBF96DA3D3E90023FBF70AFAFBF71AFCD6
:1051380000EE100A08EE900A00F0A6FDB0EE408AD4
:10514800B0EE680A00F0E0FD6649674A674B7CB933
:105158006748D2ED007A90ED007A0C60E8EE077AA5
:10516800C2ED007AD3ED007AE0EE077AC3ED007A5B
:10517800604893ED003A90ED005A5F48D2ED003A4E
:10518800D0ED004A5D48096806685D489FED5D6A94
:1051980090ED004A6FF0010303FB06F95A4B1B68B8
:1051A80000935A4BD3F800C0594BD3F800804FF006
:1051B800000EF1EE402A019B9C4209DBBEF1000F74
:1051C80001D0484B196003B0BDEC028BBDE8F08FED
:1051D800A31907EE103A65EE246AB8EEC77AB0EE66
:1051E800432AC6EE877A00254FF0C00AF0EE636ABC
:1051F80087EE847AA0EE272AE8EE276A62EE875ABD
:1052080028EE077AF0EE427AE5EEC66AE7EE467ACD
:10521800002E01DA4C455BDBBDEEE62A009F12EE5C
:10522800102ABDEEE72AC2F3C40B12EE100AC0F32F
:10523800C40307EB431300F0070013F80B3083F0A7
:105248008003803300EBC300400080B202F0070BFC
:105258001CF80030013080B2BBF1030F1CF80000CD
:10526800C5BF1B0100F00F000009DBB2D8BF03F077
:10527800F003034302F003022648012AC35C23D04B
:10528800022A23D002B99B0903F00303224F18F81E
:105298000100FB5C05F006024AFA02F243401340A3
:1052A800032A80EA030005F1020508F8010004BF9B
:1052B8004FF0010E0131B5F5A07F76EEA56A77EEC5
:1052C800877AA5D1013476E71B09DDE79B08DBE780
:1052D8000323DBE7AFF30080F641085BFB21993F2E
:1052E800CC210020F02A0020D4210020F42A00201C
:1052F800E4210020E0210020DC210020D021002032
:10530800D82100200000A042E82A0020E42A00203A
:10531800E02A0020CC20002034AE0008034A13689D
:105328006C21013300201360FFF7EABECC21002076
:1053380008B5C8216C20FFF7E3FE054B1968054B3B
:105348004FF4FA521868BDE8084000F067B900BF8A
:10535800E02A0020EC2A0020C20670B505460C465B
:1053680001D5FFF77BFE2B0715D5574ED6ED007AF2
:10537800B1EE047AF4EEC77AF1EE10FA0BD517EE17
:10538800900AFBF789F84EA3D3E90023FAF726FF22
:10539800FBF7E8FA30606E0715D54B4ED6ED007A6C
:1053A800B9EE047AF4EEC77AF1EE10FA0BDD17EED7
:1053B800900AFBF771F842A3D3E90023FAF70CFF30
:1053C800FBF7D0FA3060A80704D5404A1368043BBD
:1053D800DBB21360E90704D53C4A13680433DBB237
:1053E8001360220608D53A4BD3ED007AB1EE047A61
:1053F80077EE877AC3ED007A630608D5344BD3ED90
:10540800007AB1EE047A77EEC77AC3ED007A260700
:105418000FD5304B9FED307AD3ED007AF4EEC77A92
:10542800F1EE10FA42BFB3EE047A77EE877AC3ED55
:10543800007A65070DD5274BD3ED007AB3EE047AD1
:10544800F4EEC77AF1EE10FAC4BF77EEC77AC3ED6F
:10545800007AA0070FD5214B9FED1F7AD3ED007A74
:10546800F4EEC77AF1EE10FA42BFB3EE047A77EEA3
:10547800877AC3ED007AE10710D5164BD3ED007A91
:10548800B3EE047AF4EEC77AF1EE10FAC1BF134B0B
:10549800D3ED007A77EEC77AC3ED007AA20605D578
:1054A8000F4A1368002BBCBF01331360E30641BFEA
:1054B8000B4A136803F1FF33136070BDAFF300802C
:1054C8009A9999999999B93FE4210020CC21002013
:1054D800E0210020D82100200000FA44DC2100202F
:1054E800D02100202DE9F04772B62949294A2A4DD2
:1054F800D2F8009029482A4FDFF8ACE0DFF8ACC0BA
:10550800DFF8AC8004234B8310234B83254B012405
:105518001B684C832E462A6912F0010FFBD012F04B
:10552800100F32D192060ED5C0F800803A69D2B277
:1055380019F80220120242610C83326912F001024A
:10554800FBD10260E7E73A695FFA82F90269D6F8A7
:1055580010A01AF0010F92B2F8D1B9F1000F0CD1D6
:1055680003F47F4343EA122313F47F4F14BFF14639
:10557800E146DAB209EB0229DFE7B9F1010F02BF10
:10558800DBB202F47F421343EEE74C83D5E700BF5A
:1055980000040240E82100200008024000100240F8
:1055A800000C0240F82A002000000010142C0020F3
:1055B8000000555570B50D4E0D4CA41BA4100025C8
:1055C800A54209D10B4E0C4C01F0D4F8A41BA41031
:1055D8000025A54205D170BD56F8253098470135FC
:1055E800EEE756F8253098470135F2E714B300087E
:1055F80014B3000814B3000818B30008024B01469E
:10560800186800F06DB800BFEC210020024B01467D
:10561800186800F017B800BFEC21002010B5431E31
:105628000A44914200D110BD11F8014B03F8014F13
:10563800F7E702440346934200D1704703F8011B81
:10564800F9E7000038B50546002945D051F8043C73
:105658000C1F002BB8BFE41800F0F8FA1F4A1368B3
:10566800104633B9636014602846BDE8384000F03E
:10567800EEBAA3420CD921686218934204BF1A6893
:105688005B68636004BF521822600460ECE713464D
:105698005A680AB1A242FAD919685818A0420BD11F
:1056A80020680144581882421960DDD11068526898
:1056B8005A6001441960D7E702D90C232B60D3E75D
:1056C800206821188A4204BF11685268626004BFCA
:1056D800091821605C60C7E738BD00BFFC2A0020BC
:1056E80070B5CD1C25F0030508350C2D38BF0C25E9
:1056F800002D064601DBA94203D90C2333600020A4
:1057080070BD00F0A3FA234A1468214691B9224CCF
:1057180023681BB9304600F0B1F9206029463046AD
:1057280000F0ACF9431C26D10C233360304600F05E
:105738008EFAE4E70B685B1B1AD40B2B0FD90B60AE
:10574800CD50CC18304600F082FA04F10B00231D2E
:1057580020F00700C31A1BD05A42E25070BD8C4299
:105768000DBF63684B686360136018BF0C46E9E7B8
:105778000C464968CAE7C41C24F00304A04205D0BB
:10578800211A304600F07AF90130CDD02560D9E7EA
:1057980070BD00BFFC2A0020002B0020012B30B573
:1057A8000ADC9208013A03680C6840F8044B002AA6
:1057B80041F8043BF6DC30BD03460D781C7803F84D
:1057C800015B01F8014BD41A0444002CF5DC30BD10
:1057D800F8B50C46154607461E4698470028294640
:1057E80020460ADAB047002805DB29463846B04784
:1057F80000280ADB3C462046F8BDB0470028FADC02
:1058080029463846B0470028F4DB2C46F3E72DE953
:10581800F04F85B006468B4614460093B20713D165
:10582800A30711D1B4F1040818BF4FF001083319C8
:10583800BBF1060F019329D81F4604FB0B6B5F458C
:1058480080F01981B9461DE04FF00208EFE74346A2
:10585800224651464846FFF7A1FF12E0A9EB040A89
:1058680049465046009B984700280DDDB8F1000FC7
:10587800EDD1D9F80030DAF80020C9F80020CAF8CC
:105888000030D1464E45E9D32744D8E74FEA5B05B7
:105898000BF1FF33BBF1070F04FB0565019324D01F
:1058A800BBF1280F04FB036951D94FEADB076743B3
:1058B800F119CA19009B3046FFF78AFFEA192946F1
:1058C800009B8246E81BFFF783FF0546A9EB4700CC
:1058D8004A46009BC119FFF77BFF81462946009B7A
:1058E8004A465046FFF774FF0546B8F1000F30D11D
:1058F80033682A6832602B60019B371904FB036503
:105908003B190293A94601970023029AA2EB040AC5
:105918005545C0F0AA8003933146009B50469847EE
:105928000028039B31DC0ED1B8F1000F18D1019B80
:1059380001991B68DAF800200A60CAF80030019B58
:10594800234401930123029A22440292DDE7B246DE
:10595800C4E74346224629463046FFF71FFFCBE7F8
:105968004346224651460198FFF718FFE7E70BD157
:10597800B8F1000F1DD12B68D9F800202A60C9F8AA
:105988000030A9EB040901232D1B55456DD3039362
:105998003146009B284698470028039BE7DAB8F170
:1059A800000F0DD04346224629465046FFF7F6FE23
:1059B8000CE04346224649462846FFF7EFFEE0E75B
:1059C800DAF800302A68CAF800202B602D1BB9E7E6
:1059D8004346224649462846FFF7E0FE10E0A5EB7D
:1059E800040929464846009B984700280BDDB8F172
:1059F800000FEDD12B68D9F800202A60C9F80030D3
:105A08004D46AE42EBD327445F4534D23D46F8E7D6
:105A1800019B06EB0B079A1BAAEB030B5A45A8BF81
:105A28005A462AB14346AAEB02013046FFF7B6FEB2
:105A3800A7EB0902A9EB0505121BAA4228BF2A46B3
:105A480022B14346B91A5046FFF7A8FE5C4506D274
:105A5800BBFBF4F1009B22463046FFF7D8FEAC4270
:105A680009D2B5FBF4FB7E1BD8E604FB0BFB002B2D
:105A7800CED1B344C8E705B0BDE8F08F38B5064CC1
:105A8800002305460846236000F066FE431C02D149
:105A9800236803B12B6038BD602E0120F8B5064697
:105AA8000F4616F8014B00F0B1F8204417F8015BD7
:105AB800437803F00303012B08BF203400F0A6F855
:105AC8002844437803F00303012B08BF2035601BEB
